S02100006677642D747261666669632D6C696768742D636F6E74726F6C2E7372656343
S11300000C942A000C94CD000C9447000C944700E7
S11300100C9447000C9447000C9447000C94470040
S11300200C9447000C9447000C9447000C94470030
S11300300C9447000C9447000C9447000C94470020
S11300400C9447000C9447000C9447000C94470010
S11300500C94470011241FBECFE5D8E0DEBFCDBF0E
S113006010E0A0E6B0E0E4EDFBE002C005900D92E4
S1130070A236B107D9F720E0A2E6B0E001C01D9294
S1130080A436B207E1F70E947D010C94E8050C94B4
S1130090000062E081E00E94540160E080E00E9480
S11300A054010E946E0310926300809162008111DA
S11300B019C060E00E940B0161E080E00E9412011F
S11300C0109263008091620081110CC061E00E9473
S11300D00B0162E080E00E9407010E946E0381E050
S11300E080936300089580916300882349F062E05F
S11300F080E00E94540160E081E00E94540126C027
S113010062E080E00E940B0160E080E00E940B014D
S113011062E081E00E940B0160E081E00E940B013B
S113012021E041E061E080E00E942C0161E080E098
S11301300E940B0161E081E00E940B0162E080E01B
S11301400E94070160E081E00E9407010E946E03A3
S113015062E080E00E940B0121E041E061E080E088
S11301600E942C0181E08093600010926300109241
S1130170620008950E94E8000E94E2000E94D202F8
S11301800E94CA02089580916000882319F00E9499
S1130190490008950E94730008951F920F920FB6AC
S11301A00F9211248F9380916200811105C01092E7
S11301B0600081E0809362008F910F900FBE0F90DA
S11301C01F90189540E062E083E00E948201089548
S11301D041E062E080E00E94820141E061E080E071
S11301E00E94820141E060E080E00E94820141E0DF
S11301F062E081E00E94820141E061E081E00E94CE
S1130200820141E060E081E00E948201089541E0C2
S11302100E940602089540E00E94060208950E948A
S1130220900208950F931F93CF93DF93182F062FF7
S11302300E940701C0E0D0E007C00E947703602F4E
S1130240812F0E940F012196C530D105B4F3DF91AF
S1130250CF911F910F910895EF92FF920F931F93E7
S1130260CF93DF93F82EE62E142F022F0E9407015E
S1130270602F812F0E940701C0E0D0E00BC00E94D4
S113028077036E2D8F2D0E940F01602F812F0E9406
S11302900F012196C530D10594F3DF91CF911F91C1
S11302A00F91FF90EF900895CF93DF93D82FC62F2F
S11302B00E940701C23049F460E08D2F0E940B01B7
S11302C061E08D2F0E940B0115C0C11109C062E0CD
S11302D08D2F0E940B0161E08D2F0E940B010AC03B
S11302E0C13041F462E08D2F0E940B0160E08D2F3C
S11302F00E940B01DF91CF9108950E94BA000E94E1
S1130300C300FDCF813011F130F08230E9F1833048
S113031009F457C073C041110DC02AB381E090E0C5
S113032002C0880F991F6A95E2F7809582238ABBE1
S113033080E008952AB381E090E002C0880F991FFD
S11303406A95E2F7822B8ABB80E0089541110DC0C3
S113035027B381E090E002C0880F991F6A95E2F705
S11303608095822387BB80E00895413009F048C01E
S113037027B381E090E002C0880F991F6A95E2F7E5
S1130380822B87BB80E0089541110DC024B381E026
S113039090E002C0880F991F6A95E2F78095822346
S11303A084BB80E00895413069F524B381E090E096
S11303B002C0880F991F6A95E2F7822B84BB80E004
S11303C0089541110DC021B381E090E002C0880F6F
S11303D0991F6A95E2F78095822381BB80E0089596
S11303E0413091F421B381E090E002C0880F991F5D
S11303F06A95E2F7822B81BB80E0089581E008953D
S113040080E0089580E0089580E00895813031F11E
S113041038F0823009F440C0833009F45AC076C001
S113042041110DC02BB381E090E002C0880F991FE9
S11304306A95E2F7809582238BBB80E00895413072
S113044009F066C02BB381E090E002C0880F991FC9
S11304506A95E2F7822B8BBB80E0089541110DC0B1
S113046028B381E090E002C0880F991F6A95E2F7F3
S11304708095822388BB80E00895413009F04AC00A
S113048028B381E090E002C0880F991F6A95E2F7D3
S1130490822B88BB80E0089541110DC025B381E013
S11304A090E002C0880F991F6A95E2F78095822335
S11304B085BB80E00895413079F525B381E090E073
S11304C002C0880F991F6A95E2F7822B85BB80E0F2
S11304D0089541110DC022B381E090E002C0880F5D
S11304E0991F6A95E2F78095822382BB80E0089584
S11304F04130A1F422B381E090E002C0880F991F3B
S11305006A95E2F7822B82BB80E0089581E008952A
S113051080E0089580E0089580E0089580E00895E3
S1130520813091F028F08230D9F0833029F130C045
S11305302BB381E090E002C0880F991F6A95E2F71F
S113054082278BBB80E0089528B381E090E002C04D
S1130550880F991F6A95E2F7822788BB80E0089587
S113056025B381E090E002C0880F991F6A95E2F7F5
S1130570822785BB80E0089522B381E090E002C029
S1130580880F991F6A95E2F7822782BB80E008955D
S113059081E00895789485B7836085BF8BB78064C4
S11305A08BBF089513BE12BE089562BF80349105B7
S11305B0C9F030F48130910559F0089771F021C0E9
S11305C0811521E0920799F081159440A9F019C092
S11305D083B7816083BF80E0089583B7826083BF5F
S11305E080E0089583B7836083BF80E0089583B774
S11305F0846083BF80E0089583B7856083BF80E013
S1130600089581E0089513BE08958F929F92AF924A
S1130610BF92CF92DF92EF92FF920F931F93CF93EB
S1130620DF936B017C018A01BA0180E090E00E94B3
S1130630AC0420E034E244E759E40E94040420E0DE
S113064030E04AE754E40E947B054B015C0120E062
S113065030E040E853E40E947B059B01AC01C701F4
S1130660B6010E9404040E94ED030E947604EB018B
S1130670A5019401C701B6010E94040420E030E002
S113068040E05FE30E947B059B01AC0160E070E009
S113069080E893E40E9480030E947604C8010E94CB
S11306A0D50220E030E008C008B600FEFDCF88B7D0
S11306B0816088BF2F5F3F4F2C173D07A8F30E942E
S11306C00303DF91CF911F910F91FF90EF90DF9083
S11306D0CF90BF90AF909F908F90089540E054E0EA
S11306E060E070E48CE995E40E940503089540E01D
S11306F054E060E070E08AE794E40E940503089502
S11307005058BB27AA270E9498030C9429050E94DD
S11307101B0538F00E94220520F039F49F3F19F49C
S113072026F40C9418050EF4E095E7FB0C94E90408
S1130730E92F0E943A0558F3BA1762077307840732
S1130740950720F079F4A6F50C9474050EF4E09561
S11307500B2EBA2FA02D0B01B90190010C01CA0177
S1130760A0011124FF27591B99F0593F50F4503E22
S113077068F11A16F040A22F232F342F4427585F14
S1130780F3CF469537952795A795F0405395C9F72C
S11307907EF41F16BA0B620B730B840BBAF09150E4
S11307A0A1F0FF0FBB1F661F771F881FC2F70EC083
S11307B0BA0F621F731F841F48F487957795679556
S11307C0B795F7959E3F08F0B0CF9395880F08F042
S11307D09927EE0F9795879508950E945C0590F0F0
S11307E09F3748F4911116F40C94750560E070E09D
S11307F080E89FE3089526F01B16611D711D811D7D
S11308000C94EF040C940A050E9418040C94290516
S11308100E94220558F00E941B0540F029F45F3F16
S113082029F00C94E90451110C9475050C941805E5
S11308300E943A0568F39923B1F3552391F3951B6C
S1130840550BBB27AA2762177307840738F09F5FED
S11308505F4F220F331F441FAA1FA9F335D00E2E5A
S11308603AF0E0E832D091505040E695001CCAF7C7
S11308702BD0FE2F29D0660F771F881FBB1F26178A
S113088037074807AB07B0E809F0BB0B802DBF0161
S1130890FF2793585F4F3AF09E3F510578F00C9430
S11308A0E9040C9475055F3FE4F3983ED4F3869510
S11308B077956795B795F7959F5FC9F7880F911D51
S11308C09695879597F90895E1E0660F771F881F3D
S11308D0BB1F621773078407BA0720F0621B730BF0
S11308E0840BBA0BEE1F88F7E09508950E947D04EF
S11308F06894B1110C94750508950E94420588F01E
S11309009F5798F0B92F9927B751B0F0E1F0660FCF
S1130910771F881F991F1AF0BA95C9F714C0B13010
S113092091F00E947405B1E008950C947405672F4A
S1130930782F8827B85F39F0B93FCCF3869577953F
S11309406795B395D9F73EF4909580957095619528
S11309507F4F8F4F9F4F0895E89409C097FB3EF453
S113096090958095709561957F4F8F4F9F4F9923F8
S1130970A9F0F92F96E9BB279395F6958795779576
S11309806795B795F111F8CFFAF4BB0F11F460FF36
S11309901BC06F5F7F4F8F4F9F4F16C0882311F08E
S11309A096E911C0772321F09EE8872F762F05C0A2
S11309B0662371F096E8862F70E060E02AF09A953D
S11309C0660F771F881FDAF7880F9695879597F932
S11309D0089597F99F6780E870E060E008958823A0
S11309E071F4772321F09850872B762F07C0662364
S11309F011F499270DC09051862B70E060E02AF025
S1130A009A95660F771F881FDAF7880F9695879552
S1130A1097F908959F3F31F0915020F48795779589
S1130A206795B795880F911D9695879597F90895C1
S1130A309FEF80EC089500240A94161617061806F2
S1130A400906089500240A941216130614060506CE
S1130A500895092E0394000C11F4882352F0BB0F5F
S1130A6040F4BF2B11F460FF04C06F5F7F4F8F4FC2
S1130A709F4F089557FD9058440F551F59F05F3FFD
S1130A8071F04795880F97FB991F61F09F3F79F0AC
S1130A9087950895121613061406551FF2CF46952E
S1130AA0F1DF08C0161617061806991FF1CF8695B0
S1130AB071056105089408950E944205A0F0BEE7FF
S1130AC0B91788F4BB279F3860F41616B11D672F39
S1130AD0782F8827985FF7CF869577956795B11D0E
S1130AE093959639C8F30895E894BB27662777272A
S1130AF0CB0197F908950E948E050C9429050E9454
S1130B001B0538F00E94220520F0952311F00C9467
S1130B10E9040C94180511240C9475050E943A05F7
S1130B2070F3959FC1F3950F50E0551F629FF0013C
S1130B30729FBB27F00DB11D639FAA27F00DB11D55
S1130B40AA1F649F6627B00DA11D661F829F2227DE
S1130B50B00DA11D621F739FB00DA11D621F839F65
S1130B60A00D611D221F749F3327A00D611D231F3B
S1130B70849F600D211D822F762F6A2F11249F5789
S1130B8050409AF0F1F088234AF0EE0FFF1FBB1F8C
S1130B90661F771F881F91505040A9F79E3F51054B
S1130BA080F00C94E9040C9475055F3FE4F3983EDF
S1130BB0D4F3869577956795B795F795E7959F5FF5
S1130BC0C1F7FE2B880F911D9695879597F9089587
S1070BD0F894FFCFC3
S1050BD401001A
S9030000FC
