:100000000C942A000C94F8020C9447000C944700BE
:100010000C9447000C9447000C9447000C94470044
:100020000C9447000C9447000C9447000C94470034
:100030000C9447000C9447000C9447000C94470024
:100040000C9447000C9447000C9447000C94470014
:100050000C94470011241FBECFE5D8E0DEBFCDBF12
:1000600010E0A0E6B0E0E2E5FCE002C005900D92F1
:10007000A236B107D9F720E0A2E6B0E001C01D9298
:10008000A636B207E1F70E94A3010C9427060C9450
:10009000000062E081E00E94640160E080E00E9474
:1000A00064010E94AD03109263008091620081118F
:1000B00019C060E00E94F60061E080E00E94FD004F
:1000C000109263008091620081110CC061E00E9477
:1000D000F60062E080E00E94F2000E94AD0381E041
:1000E00080936300089580916300882349F062E063
:1000F00080E00E94640160E081E00E94640126C00B
:1001000062E080E00E94F60060E080E00E94F6007D
:1001100062E081E00E94F60060E081E00E94F6006B
:1001200021E041E061E080E00E94260161E080E0A2
:100130000E94F60061E081E00E94F60062E080E04B
:100140000E94F20060E081E00E94F2000E94AD0394
:1001500062E080E00E94F60021E041E061E080E0A2
:100160000E94260181E0809360001092630010924B
:10017000620008950E94D3000E94CB000E940C03ED
:10018000089580916000882319F00E944900089525
:100190000E947300089540E062E083E00E94A8019D
:1001A0000E94F002089541E062E080E00E94A80110
:1001B00041E061E080E00E94A80141E060E080E071
:1001C0000E94A80141E062E081E00E94A80141E0B4
:1001D00061E081E00E94A80141E060E081E00E94CE
:1001E000A801089541E00E942C02089540E00E9479
:1001F0002C0208950E94B6020895FF920F931F9358
:10020000CF93DF93082FF62E0E94F200182F813033
:1002100089F415C00E94B603813009F411E06F2DF6
:10022000802F0E94FA00813009F411E0113039F07A
:10023000219602C0C0E0D0E0C530D1055CF3812F2B
:10024000DF91CF911F910F91FF900895DF92EF9270
:10025000FF920F931F93CF93DF93082FF62EE42E78
:10026000D22E0E94F200813011F010E001C011E0A6
:100270006D2D8E2D0E94F200813009F411E0C0E056
:10028000D0E016C00E94B603813009F411E06F2D52
:10029000802F0E94FA00813009F411E06D2D8E2D1F
:1002A0000E94FA00813009F411E0113021F021960A
:1002B000C530D1053CF3812FDF91CF911F910F9174
:1002C000FF90EF90DF9008951F93CF93DF93D82F87
:1002D000C62F0E94F200182FC23079F460E08D2FF3
:1002E0000E94F600813009F411E061E08D2F0E9438
:1002F000F600813019F511E021C0C1110FC062E094
:100300008D2F0E94F600813009F411E061E08D2FFD
:100310000E94F600813091F411E010C0C13071F4F8
:1003200062E08D2F0E94F600813009F411E060E058
:100330008D2F0E94F600813009F411E0812FDF91AA
:10034000CF911F9108950E94BA000E94C100FDCF75
:10035000813011F130F08230E9F1833009F457C077
:1003600073C041110DC02AB381E090E002C0880F34
:10037000991F6A95E2F7809582238ABB80E00895F1
:100380002AB381E090E002C0880F991F6A95E2F7D6
:10039000822B8ABB80E0089541110DC027B381E014
:1003A00090E002C0880F991F6A95E2F7809582233A
:1003B00087BB80E00895413009F048C027B381E051
:1003C00090E002C0880F991F6A95E2F7822B87BBE5
:1003D00080E0089541110DC024B381E090E002C097
:1003E000880F991F6A95E2F78095822384BB80E08D
:1003F0000895413069F524B381E090E002C0880F90
:10040000991F6A95E2F7822B84BB80E00895411121
:100410000DC021B381E090E002C0880F991F6A955A
:10042000E2F78095822381BB80E00895413091F40A
:1004300021B381E090E002C0880F991F6A95E2F72E
:10044000822B81BB80E0089581E0089580E00895CB
:1004500080E0089580E00895813031F138F08230F5
:1004600009F440C0833009F45AC076C041110DC070
:100470002BB381E090E002C0880F991F6A95E2F7E4
:10048000809582238BBB80E00895413009F066C0DF
:100490002BB381E090E002C0880F991F6A95E2F7C4
:1004A000822B8BBB80E0089541110DC028B381E001
:1004B00090E002C0880F991F6A95E2F78095822329
:1004C00088BB80E00895413009F04AC028B381E03C
:1004D00090E002C0880F991F6A95E2F7822B88BBD3
:1004E00080E0089541110DC025B381E090E002C085
:1004F000880F991F6A95E2F78095822385BB80E07B
:100500000895413079F525B381E090E002C0880F6D
:10051000991F6A95E2F7822B85BB80E0089541110F
:100520000DC022B381E090E002C0880F991F6A9548
:10053000E2F78095822382BB80E008954130A1F4E8
:1005400022B381E090E002C0880F991F6A95E2F71C
:10055000822B82BB80E0089581E0089580E00895B9
:1005600080E0089580E0089580E00895813091F062
:1005700028F08230D9F0833029F130C02BB381E0EC
:1005800090E002C0880F991F6A95E2F782278BBB23
:1005900080E0089528B381E090E002C0880F991FA1
:1005A0006A95E2F7822788BB80E0089525B381E051
:1005B00090E002C0880F991F6A95E2F7822785BBF9
:1005C00080E0089522B381E090E002C0880F991F77
:1005D0006A95E2F7822782BB80E0089581E0089562
:1005E000789485B7836085BF8BB780648BBF08958F
:1005F0001F920F920FB60F9211248F939F9381E059
:1006000090E090936500809364009F918F910F908C
:100610000FBE0F901F90189513BE12BE089562BFB3
:1006200080349105C9F030F48130910559F0089774
:1006300071F021C0811521E0920799F08115944055
:10064000A9F019C083B7816083BF80E0089583B7A4
:10065000826083BF80E0089583B7836083BF80E0BA
:10066000089583B7846083BF80E0089583B7856071
:1006700083BF80E0089581E0089513BE08958F92AE
:100680009F92AF92BF92CF92DF92EF92FF920F9321
:100690001F93CF93DF936B017C018A01BA0180E045
:1006A00090E00E94EB0420E034E244E759E40E9429
:1006B000430420E030E04AE754E40E94BA054B01CD
:1006C0005C0120E030E040E853E40E94BA059B0161
:1006D000AC01C701B6010E9443040E942C040E9491
:1006E000B504EB01A5019401C701B6010E944304C2
:1006F00020E030E040E05FE30E94BA059B01AC01DE
:1007000060E070E080E893E40E94BF030E94B504BB
:10071000C8010E940F03182F882351F010C008B69B
:1007200000FEFDCF88B7816088BF2F5F3F4F02C0BA
:1007300020E030E02C173D0790F30E943D03812F0D
:10074000DF91CF911F910F91FF90EF90DF90CF90AD
:10075000BF90AF909F908F90089540E054E060E08C
:1007600070E48CE995E40E943F03089540E054E072
:1007700060E070E08AE794E40E943F0308955058D7
:10078000BB27AA270E94D7030C9468050E945A052C
:1007900038F00E94610520F039F49F3F19F426F4E7
:1007A0000C9457050EF4E095E7FB0C942805E92F0F
:1007B0000E94790558F3BA176207730784079507F3
:1007C00020F079F4A6F50C94B3050EF4E0950B2E09
:1007D000BA2FA02D0B01B90190010C01CA01A00193
:1007E0001124FF27591B99F0593F50F4503E68F1EE
:1007F0001A16F040A22F232F342F4427585FF3CF2F
:10080000469537952795A795F0405395C9F77EF4FF
:100810001F16BA0B620B730B840BBAF09150A1F048
:10082000FF0FBB1F661F771F881FC2F70EC0BA0FCE
:10083000621F731F841F48F4879577956795B79556
:10084000F7959E3F08F0B0CF9395880F08F0992751
:10085000EE0F9795879508950E949B0590F09F371E
:1008600048F4911116F40C94B40560E070E080E84F
:100870009FE3089526F01B16611D711D811D0C94C8
:100880002E050C9449050E9457040C9468050E949B
:10089000610558F00E945A0540F029F45F3F29F0A5
:1008A0000C94280551110C94B4050C9457050E9422
:1008B000790568F39923B1F3552391F3951B550BF3
:1008C000BB27AA2762177307840738F09F5F5F4F23
:1008D000220F331F441FAA1FA9F335D00E2E3AF062
:1008E000E0E832D091505040E695001CCAF72BD07A
:1008F000FE2F29D0660F771F881FBB1F26173707CB
:100900004807AB07B0E809F0BB0B802DBF01FF27FC
:1009100093585F4F3AF09E3F510578F00C942805AC
:100920000C94B4055F3FE4F3983ED4F38695779535
:100930006795B795F7959F5FC9F7880F911D9695B5
:10094000879597F90895E1E0660F771F881FBB1F11
:10095000621773078407BA0720F0621B730B840BBE
:10096000BA0BEE1F88F7E09508950E94BC046894C6
:10097000B1110C94B40508950E94810588F09F5729
:1009800098F0B92F9927B751B0F0E1F0660F771FB3
:10099000881F991F1AF0BA95C9F714C0B13091F0A9
:1009A0000E94B305B1E008950C94B305672F782F2A
:1009B0008827B85F39F0B93FCCF38695779567956E
:1009C000B395D9F73EF490958095709561957F4FDA
:1009D0008F4F9F4F0895E89409C097FB3EF4909580
:1009E0008095709561957F4F8F4F9F4F9923A9F008
:1009F000F92F96E9BB279395F69587957795679597
:100A0000B795F111F8CFFAF4BB0F11F460FF1BC0DA
:100A10006F5F7F4F8F4F9F4F16C0882311F096E96D
:100A200011C0772321F09EE8872F762F05C066231B
:100A300071F096E8862F70E060E02AF09A95660FD4
:100A4000771F881FDAF7880F9695879597F908958D
:100A500097F99F6780E870E060E00895882371F45B
:100A6000772321F09850872B762F07C0662311F447
:100A700099270DC09051862B70E060E02AF09A957E
:100A8000660F771F881FDAF7880F9695879597F975
:100A900008959F3F31F0915020F4879577956795A1
:100AA000B795880F911D9695879597F908959FEFB3
:100AB00080EC089500240A941616170618060906F5
:100AC000089500240A9412161306140605060895C4
:100AD000092E0394000C11F4882352F0BB0F40F44C
:100AE000BF2B11F460FF04C06F5F7F4F8F4F9F4F8C
:100AF000089557FD9058440F551F59F05F3F71F00E
:100B00004795880F97FB991F61F09F3F79F0879574
:100B10000895121613061406551FF2CF4695F1DFFD
:100B200008C0161617061806991FF1CF869571058D
:100B30006105089408950E948105A0F0BEE7B917E9
:100B400088F4BB279F3860F41616B11D672F782FE5
:100B50008827985FF7CF869577956795B11D939510
:100B60009639C8F30895E894BB2766277727CB0109
:100B700097F908950E94CD050C9468050E945A05C6
:100B800038F00E94610520F0952311F00C9428059F
:100B90000C94570511240C94B4050E94790570F348
:100BA000959FC1F3950F50E0551F629FF001729F12
:100BB000BB27F00DB11D639FAA27F00DB11DAA1F21
:100BC000649F6627B00DA11D661F829F2227B00D6E
:100BD000A11D621F739FB00DA11D621F839FA00DF9
:100BE000611D221F749F3327A00D611D231F849F49
:100BF000600D211D822F762F6A2F11249F575040A0
:100C00009AF0F1F088234AF0EE0FFF1FBB1F661F1A
:100C1000771F881F91505040A9F79E3F510580F0E3
:100C20000C9428050C94B4055F3FE4F3983ED4F38C
:100C3000869577956795B795F795E7959F5FC1F787
:100C4000FE2B880F911D9695879597F90895F89436
:020C5000FFCFD4
:020C520001009F
:00000001FF
