:100000000C942A000C94D5000C9447000C944700E3
:100010000C9447000C9447000C9447000C94470044
:100020000C9447000C9447000C9447000C94470034
:100030000C9447000C9447000C9447000C94470024
:100040000C9447000C9447000C9447000C94470014
:100050000C94470011241FBECFE5D8E0DEBFCDBF12
:1000600010E0A0E6B0E0E4EEFBE002C005900D92E7
:10007000A236B107D9F720E0A2E6B0E001C01D9298
:10008000A436B207E1F70E9485010C94F0050C94A8
:10009000000062E081E00E945C0160E080E00E947C
:1000A0005C010E94760310926300809162008111CE
:1000B00019C060E00E94130161E080E00E941A0113
:1000C000109263008091620081110CC061E00E9477
:1000D000130162E080E00E940F010E94760381E03C
:1000E00080936300089580916300882349F062E063
:1000F00080E00E945C0160E081E00E945C0126C01B
:1001000062E080E00E94130160E080E00E94130141
:1001100062E081E00E94130160E081E00E9413012F
:1001200021E041E061E080E00E94340161E080E094
:100130000E94130162E080E00E940F0161E081E013
:100140000E94130160E081E00E940F010E9476038B
:1001500062E080E00E94130121E041E061E080E084
:100160000E94340162E081E00E945C0160E080E076
:100170000E945C0181E08093600010926300109205
:10018000620008950E94F0000E94EA000E94DA02D4
:100190000E94D202089580916000882319F00E9485
:1001A000490008950E94730008951F920F920FB6A0
:1001B0000F9211248F9380916200811105C01092DB
:1001C000600081E0809362008F910F900FBE0F90CE
:1001D0001F90189540E062E083E00E948A01089534
:1001E00041E062E080E00E948A0141E061E080E05D
:1001F0000E948A0141E060E080E00E948A0141E0C3
:1002000062E081E00E948A0141E061E081E00E94B9
:100210008A0141E060E081E00E948A01089541E0A6
:100220000E940E02089540E00E940E0208950E946E
:10023000980208950F931F93CF93DF93182F062FE3
:100240000E940F01C0E0D0E007C00E947F03602F32
:10025000812F0E9417012196C530D105B4F3DF919B
:10026000CF911F910F910895EF92FF920F931F93DB
:10027000CF93DF93F82EE62E142F022F0E940F014A
:10028000602F812F0E940F01C0E0D0E00BC00E94C0
:100290007F036E2D8F2D0E941701602F812F0E94EA
:1002A00017012196C530D10594F3DF91CF911F91AD
:1002B0000F91FF90EF900895CF93DF93D82FC62F23
:1002C0000E940F01C23049F460E08D2F0E9413019B
:1002D00061E08D2F0E94130115C0C11109C062E0B9
:1002E0008D2F0E94130161E08D2F0E9413010AC01F
:1002F000C13041F462E08D2F0E94130160E08D2F28
:100300000E941301DF91CF9108950E94C2000E94C4
:10031000CB00FDCF813011F130F08230E9F1833034
:1003200009F457C073C041110DC02AB381E090E0B9
:1003300002C0880F991F6A95E2F7809582238ABBD5
:1003400080E008952AB381E090E002C0880F991FF1
:100350006A95E2F7822B8ABB80E0089541110DC0B7
:1003600027B381E090E002C0880F991F6A95E2F7F9
:100370008095822387BB80E00895413009F048C012
:1003800027B381E090E002C0880F991F6A95E2F7D9
:10039000822B87BB80E0089541110DC024B381E01A
:1003A00090E002C0880F991F6A95E2F7809582233A
:1003B00084BB80E00895413069F524B381E090E08A
:1003C00002C0880F991F6A95E2F7822B84BB80E0F8
:1003D000089541110DC021B381E090E002C0880F63
:1003E000991F6A95E2F78095822381BB80E008958A
:1003F000413091F421B381E090E002C0880F991F51
:100400006A95E2F7822B81BB80E0089581E0089530
:1004100080E0089580E0089580E00895813031F112
:1004200038F0823009F440C0833009F45AC076C0F5
:1004300041110DC02BB381E090E002C0880F991FDD
:100440006A95E2F7809582238BBB80E00895413066
:1004500009F066C02BB381E090E002C0880F991FBD
:100460006A95E2F7822B8BBB80E0089541110DC0A5
:1004700028B381E090E002C0880F991F6A95E2F7E7
:100480008095822388BB80E00895413009F04AC0FE
:1004900028B381E090E002C0880F991F6A95E2F7C7
:1004A000822B88BB80E0089541110DC025B381E007
:1004B00090E002C0880F991F6A95E2F78095822329
:1004C00085BB80E00895413079F525B381E090E067
:1004D00002C0880F991F6A95E2F7822B85BB80E0E6
:1004E000089541110DC022B381E090E002C0880F51
:1004F000991F6A95E2F78095822382BB80E0089578
:100500004130A1F422B381E090E002C0880F991F2E
:100510006A95E2F7822B82BB80E0089581E008951E
:1005200080E0089580E0089580E0089580E00895D7
:10053000813091F028F08230D9F0833029F130C039
:100540002BB381E090E002C0880F991F6A95E2F713
:1005500082278BBB80E0089528B381E090E002C041
:10056000880F991F6A95E2F7822788BB80E008957B
:1005700025B381E090E002C0880F991F6A95E2F7E9
:10058000822785BB80E0089522B381E090E002C01D
:10059000880F991F6A95E2F7822782BB80E0089551
:1005A00081E00895789485B7836085BF8BB78064B8
:1005B0008BBF089513BE12BE089562BF80349105AB
:1005C000C9F030F48130910559F0089771F021C0DD
:1005D000811521E0920799F081159440A9F019C086
:1005E00083B7816083BF80E0089583B7826083BF53
:1005F00080E0089583B7836083BF80E0089583B768
:10060000846083BF80E0089583B7856083BF80E006
:10061000089581E0089513BE08958F929F92AF923E
:10062000BF92CF92DF92EF92FF920F931F93CF93DF
:10063000DF936B017C018A01BA0180E090E00E94A7
:10064000B40420E034E244E759E40E940C0420E0C2
:1006500030E04AE754E40E9483054B015C0120E04E
:1006600030E040E853E40E9483059B01AC01C701E0
:10067000B6010E940C040E94F5030E947E04EB0167
:10068000A5019401C701B6010E940C0420E030E0EE
:1006900040E05FE30E9483059B01AC0160E070E0F5
:1006A00080E893E40E9488030E947E04C8010E94AF
:1006B000DD0220E030E008C008B600FEFDCF88B7BC
:1006C000816088BF2F5F3F4F2C173D07A8F30E9422
:1006D0000B03DF91CF911F910F91FF90EF90DF906F
:1006E000CF90BF90AF909F908F90089540E054E0DE
:1006F00060E070E48CE995E40E940D03089540E009
:1007000054E060E070E08AE794E40E940D030895ED
:100710005058BB27AA270E94A0030C9431050E94C1
:10072000230538F00E942A0520F039F49F3F19F480
:1007300026F40C9420050EF4E095E7FB0C94F104EC
:10074000E92F0E94420558F3BA176207730784071E
:10075000950720F079F4A6F50C947C050EF4E0954D
:100760000B2EBA2FA02D0B01B90190010C01CA016B
:10077000A0011124FF27591B99F0593F50F4503E16
:1007800068F11A16F040A22F232F342F4427585F08
:10079000F3CF469537952795A795F0405395C9F720
:1007A0007EF41F16BA0B620B730B840BBAF09150D8
:1007B000A1F0FF0FBB1F661F771F881FC2F70EC077
:1007C000BA0F621F731F841F48F48795779567954A
:1007D000B795F7959E3F08F0B0CF9395880F08F036
:1007E0009927EE0F9795879508950E94640590F0DC
:1007F0009F3748F4911116F40C947D0560E070E089
:1008000080E89FE3089526F01B16611D711D811D70
:100810000C94F7040C9412050E9420040C943105EA
:100820000E942A0558F00E94230540F029F45F3FFA
:1008300029F00C94F10451110C947D050C942005C1
:100840000E94420568F39923B1F3552391F3951B58
:10085000550BBB27AA2762177307840738F09F5FE1
:100860005F4F220F331F441FAA1FA9F335D00E2E4E
:100870003AF0E0E832D091505040E695001CCAF7BB
:100880002BD0FE2F29D0660F771F881FBB1F26177E
:1008900037074807AB07B0E809F0BB0B802DBF0155
:1008A000FF2793585F4F3AF09E3F510578F00C9424
:1008B000F1040C947D055F3FE4F3983ED4F38695F4
:1008C00077956795B795F7959F5FC9F7880F911D45
:1008D0009695879597F90895E1E0660F771F881F31
:1008E000BB1F621773078407BA0720F0621B730BE4
:1008F000840BBA0BEE1F88F7E09508950E948504DB
:100900006894B1110C947D0508950E944A0588F001
:100910009F5798F0B92F9927B751B0F0E1F0660FC3
:10092000771F881F991F1AF0BA95C9F714C0B13004
:1009300091F00E947C05B1E008950C947C05672F2E
:10094000782F8827B85F39F0B93FCCF38695779533
:100950006795B395D9F73EF490958095709561951C
:100960007F4F8F4F9F4F0895E89409C097FB3EF447
:1009700090958095709561957F4F8F4F9F4F9923EC
:10098000A9F0F92F96E9BB279395F695879577956A
:100990006795B795F111F8CFFAF4BB0F11F460FF2A
:1009A0001BC06F5F7F4F8F4F9F4F16C0882311F082
:1009B00096E911C0772321F09EE8872F762F05C096
:1009C000662371F096E8862F70E060E02AF09A9531
:1009D000660F771F881FDAF7880F9695879597F926
:1009E000089597F99F6780E870E060E00895882394
:1009F00071F4772321F09850872B762F07C0662358
:100A000011F499270DC09051862B70E060E02AF018
:100A10009A95660F771F881FDAF7880F9695879546
:100A200097F908959F3F31F0915020F4879577957D
:100A30006795B795880F911D9695879597F90895B5
:100A40009FEF80EC089500240A94161617061806E6
:100A50000906089500240A941216130614060506C2
:100A60000895092E0394000C11F4882352F0BB0F53
:100A700040F4BF2B11F460FF04C06F5F7F4F8F4FB6
:100A80009F4F089557FD9058440F551F59F05F3FF1
:100A900071F04795880F97FB991F61F09F3F79F0A0
:100AA00087950895121613061406551FF2CF469522
:100AB000F1DF08C0161617061806991FF1CF8695A4
:100AC00071056105089408950E944A05A0F0BEE7EB
:100AD000B91788F4BB279F3860F41616B11D672F2D
:100AE000782F8827985FF7CF869577956795B11D02
:100AF00093959639C8F30895E894BB27662777271E
:100B0000CB0197F908950E9496050C9431050E9437
:100B1000230538F00E942A0520F0952311F00C944B
:100B2000F1040C94200511240C947D050E944205CB
:100B300070F3959FC1F3950F50E0551F629FF00130
:100B4000729FBB27F00DB11D639FAA27F00DB11D49
:100B5000AA1F649F6627B00DA11D661F829F2227D2
:100B6000B00DA11D621F739FB00DA11D621F839F59
:100B7000A00D611D221F749F3327A00D611D231F2F
:100B8000849F600D211D822F762F6A2F11249F577D
:100B900050409AF0F1F088234AF0EE0FFF1FBB1F80
:100BA000661F771F881F91505040A9F79E3F51053F
:100BB00080F00C94F1040C947D055F3FE4F3983EC3
:100BC000D4F3869577956795B795F795E7959F5FE9
:100BD000C1F7FE2B880F911D9695879597F908957B
:040BE000F894FFCFB7
:020BE40001000E
:00000001FF
